{
  "contractName": "Lottery",
  "abi": [
    {
      "inputs": [
        {
          "internalType": "address",
          "name": "_governance",
          "type": "address"
        },
        {
          "internalType": "address",
          "name": "_link",
          "type": "address"
        },
        {
          "internalType": "address",
          "name": "_alarmOracle",
          "type": "address"
        },
        {
          "internalType": "uint256",
          "name": "_alarmFee",
          "type": "uint256"
        },
        {
          "internalType": "bytes32",
          "name": "_alarmJobIdHex",
          "type": "bytes32"
        }
      ],
      "stateMutability": "nonpayable",
      "type": "constructor"
    },
    {
      "anonymous": false,
      "inputs": [
        {
          "indexed": true,
          "internalType": "bytes32",
          "name": "id",
          "type": "bytes32"
        }
      ],
      "name": "ChainlinkCancelled",
      "type": "event"
    },
    {
      "anonymous": false,
      "inputs": [
        {
          "indexed": true,
          "internalType": "bytes32",
          "name": "id",
          "type": "bytes32"
        }
      ],
      "name": "ChainlinkFulfilled",
      "type": "event"
    },
    {
      "anonymous": false,
      "inputs": [
        {
          "indexed": true,
          "internalType": "bytes32",
          "name": "id",
          "type": "bytes32"
        }
      ],
      "name": "ChainlinkRequested",
      "type": "event"
    },
    {
      "anonymous": false,
      "inputs": [
        {
          "indexed": false,
          "internalType": "uint256",
          "name": "_id",
          "type": "uint256"
        }
      ],
      "name": "Close",
      "type": "event"
    },
    {
      "anonymous": false,
      "inputs": [
        {
          "indexed": false,
          "internalType": "uint256",
          "name": "_id",
          "type": "uint256"
        },
        {
          "indexed": true,
          "internalType": "address",
          "name": "_from",
          "type": "address"
        },
        {
          "indexed": false,
          "internalType": "uint256",
          "name": "_durationInSeconds",
          "type": "uint256"
        }
      ],
      "name": "Open",
      "type": "event"
    },
    {
      "anonymous": false,
      "inputs": [
        {
          "indexed": true,
          "internalType": "address",
          "name": "previousOwner",
          "type": "address"
        },
        {
          "indexed": true,
          "internalType": "address",
          "name": "newOwner",
          "type": "address"
        }
      ],
      "name": "OwnershipTransferred",
      "type": "event"
    },
    {
      "anonymous": false,
      "inputs": [
        {
          "indexed": false,
          "internalType": "uint256",
          "name": "_id",
          "type": "uint256"
        },
        {
          "indexed": true,
          "internalType": "address",
          "name": "_from",
          "type": "address"
        }
      ],
      "name": "PlayerJoined",
      "type": "event"
    },
    {
      "anonymous": false,
      "inputs": [
        {
          "indexed": false,
          "internalType": "uint256",
          "name": "_id",
          "type": "uint256"
        },
        {
          "indexed": false,
          "internalType": "uint256",
          "name": "_randomness",
          "type": "uint256"
        },
        {
          "indexed": false,
          "internalType": "uint256",
          "name": "_index",
          "type": "uint256"
        },
        {
          "indexed": true,
          "internalType": "address",
          "name": "_from",
          "type": "address"
        },
        {
          "indexed": false,
          "internalType": "uint256",
          "name": "_amount",
          "type": "uint256"
        }
      ],
      "name": "Winner",
      "type": "event"
    },
    {
      "inputs": [],
      "name": "MINIMUM",
      "outputs": [
        {
          "internalType": "uint256",
          "name": "",
          "type": "uint256"
        }
      ],
      "stateMutability": "view",
      "type": "function"
    },
    {
      "inputs": [],
      "name": "ORACLE_PAYMENT",
      "outputs": [
        {
          "internalType": "uint256",
          "name": "",
          "type": "uint256"
        }
      ],
      "stateMutability": "view",
      "type": "function"
    },
    {
      "inputs": [],
      "name": "alarmReceivedTime",
      "outputs": [
        {
          "internalType": "uint256",
          "name": "",
          "type": "uint256"
        }
      ],
      "stateMutability": "view",
      "type": "function"
    },
    {
      "inputs": [],
      "name": "alarmRequest",
      "outputs": [
        {
          "internalType": "bytes32",
          "name": "id",
          "type": "bytes32"
        },
        {
          "internalType": "address",
          "name": "callbackAddress",
          "type": "address"
        },
        {
          "internalType": "bytes4",
          "name": "callbackFunctionId",
          "type": "bytes4"
        },
        {
          "internalType": "uint256",
          "name": "nonce",
          "type": "uint256"
        },
        {
          "components": [
            {
              "internalType": "bytes",
              "name": "buf",
              "type": "bytes"
            },
            {
              "internalType": "uint256",
              "name": "capacity",
              "type": "uint256"
            }
          ],
          "internalType": "struct Buffer.buffer",
          "name": "buf",
          "type": "tuple"
        }
      ],
      "stateMutability": "view",
      "type": "function"
    },
    {
      "inputs": [],
      "name": "alarmRequestId",
      "outputs": [
        {
          "internalType": "bytes32",
          "name": "",
          "type": "bytes32"
        }
      ],
      "stateMutability": "view",
      "type": "function"
    },
    {
      "inputs": [],
      "name": "alarmSetTime",
      "outputs": [
        {
          "internalType": "uint256",
          "name": "",
          "type": "uint256"
        }
      ],
      "stateMutability": "view",
      "type": "function"
    },
    {
      "inputs": [],
      "name": "alarmStartTime",
      "outputs": [
        {
          "internalType": "uint256",
          "name": "",
          "type": "uint256"
        }
      ],
      "stateMutability": "view",
      "type": "function"
    },
    {
      "inputs": [],
      "name": "governance",
      "outputs": [
        {
          "internalType": "contract GovernanceInterface",
          "name": "",
          "type": "address"
        }
      ],
      "stateMutability": "view",
      "type": "function"
    },
    {
      "inputs": [],
      "name": "id",
      "outputs": [
        {
          "internalType": "uint256",
          "name": "",
          "type": "uint256"
        }
      ],
      "stateMutability": "view",
      "type": "function"
    },
    {
      "inputs": [],
      "name": "lastRandom",
      "outputs": [
        {
          "internalType": "uint256",
          "name": "",
          "type": "uint256"
        }
      ],
      "stateMutability": "view",
      "type": "function"
    },
    {
      "inputs": [],
      "name": "owner",
      "outputs": [
        {
          "internalType": "address",
          "name": "",
          "type": "address"
        }
      ],
      "stateMutability": "view",
      "type": "function"
    },
    {
      "inputs": [
        {
          "internalType": "uint256",
          "name": "",
          "type": "uint256"
        }
      ],
      "name": "players",
      "outputs": [
        {
          "internalType": "address payable",
          "name": "",
          "type": "address"
        }
      ],
      "stateMutability": "view",
      "type": "function"
    },
    {
      "inputs": [],
      "name": "renounceOwnership",
      "outputs": [],
      "stateMutability": "nonpayable",
      "type": "function"
    },
    {
      "inputs": [],
      "name": "stage",
      "outputs": [
        {
          "internalType": "enum Lottery.Stages",
          "name": "",
          "type": "uint8"
        }
      ],
      "stateMutability": "view",
      "type": "function"
    },
    {
      "inputs": [
        {
          "internalType": "address",
          "name": "newOwner",
          "type": "address"
        }
      ],
      "name": "transferOwnership",
      "outputs": [],
      "stateMutability": "nonpayable",
      "type": "function"
    },
    {
      "inputs": [
        {
          "internalType": "uint256",
          "name": "durationInSeconds",
          "type": "uint256"
        }
      ],
      "name": "open_OLD",
      "outputs": [],
      "stateMutability": "nonpayable",
      "type": "function"
    },
    {
      "inputs": [
        {
          "internalType": "uint256",
          "name": "durationInSeconds",
          "type": "uint256"
        }
      ],
      "name": "open",
      "outputs": [
        {
          "internalType": "bytes32",
          "name": "requestId",
          "type": "bytes32"
        }
      ],
      "stateMutability": "nonpayable",
      "type": "function"
    },
    {
      "inputs": [],
      "name": "join",
      "outputs": [],
      "stateMutability": "payable",
      "type": "function"
    },
    {
      "inputs": [
        {
          "internalType": "bytes32",
          "name": "requestId",
          "type": "bytes32"
        }
      ],
      "name": "fulfillAlarm",
      "outputs": [],
      "stateMutability": "nonpayable",
      "type": "function"
    },
    {
      "inputs": [
        {
          "internalType": "uint256",
          "name": "randomNumberVRF",
          "type": "uint256"
        }
      ],
      "name": "close",
      "outputs": [],
      "stateMutability": "nonpayable",
      "type": "function"
    },
    {
      "inputs": [],
      "name": "resetLottery",
      "outputs": [],
      "stateMutability": "nonpayable",
      "type": "function"
    },
    {
      "inputs": [],
      "name": "getChainlinkToken",
      "outputs": [
        {
          "internalType": "address",
          "name": "",
          "type": "address"
        }
      ],
      "stateMutability": "view",
      "type": "function"
    },
    {
      "inputs": [],
      "name": "getAlarmAddress",
      "outputs": [
        {
          "internalType": "address",
          "name": "",
          "type": "address"
        }
      ],
      "stateMutability": "view",
      "type": "function"
    },
    {
      "inputs": [],
      "name": "getAlarmJobId",
      "outputs": [
        {
          "internalType": "bytes32",
          "name": "",
          "type": "bytes32"
        }
      ],
      "stateMutability": "view",
      "type": "function"
    },
    {
      "inputs": [],
      "name": "getPlayers",
      "outputs": [
        {
          "internalType": "address payable[]",
          "name": "",
          "type": "address[]"
        }
      ],
      "stateMutability": "view",
      "type": "function"
    },
    {
      "inputs": [],
      "name": "getPlayerCount",
      "outputs": [
        {
          "internalType": "uint256",
          "name": "",
          "type": "uint256"
        }
      ],
      "stateMutability": "view",
      "type": "function"
    },
    {
      "inputs": [],
      "name": "getLotteryAmount",
      "outputs": [
        {
          "internalType": "uint256",
          "name": "",
          "type": "uint256"
        }
      ],
      "stateMutability": "view",
      "type": "function"
    },
    {
      "inputs": [],
      "name": "isOpen",
      "outputs": [
        {
          "internalType": "bool",
          "name": "",
          "type": "bool"
        }
      ],
      "stateMutability": "view",
      "type": "function"
    },
    {
      "inputs": [],
      "name": "isClosed",
      "outputs": [
        {
          "internalType": "bool",
          "name": "",
          "type": "bool"
        }
      ],
      "stateMutability": "view",
      "type": "function"
    },
    {
      "inputs": [],
      "name": "isFinished",
      "outputs": [
        {
          "internalType": "bool",
          "name": "",
          "type": "bool"
        }
      ],
      "stateMutability": "view",
      "type": "function"
    },
    {
      "inputs": [],
      "name": "getStage",
      "outputs": [
        {
          "internalType": "enum Lottery.Stages",
          "name": "",
          "type": "uint8"
        }
      ],
      "stateMutability": "view",
      "type": "function"
    },
    {
      "inputs": [
        {
          "internalType": "enum Lottery.Stages",
          "name": "_stage",
          "type": "uint8"
        }
      ],
      "name": "setStage",
      "outputs": [],
      "stateMutability": "nonpayable",
      "type": "function"
    },
    {
      "inputs": [],
      "name": "withdrawLink",
      "outputs": [],
      "stateMutability": "nonpayable",
      "type": "function"
    }
  ],
  "bytecode": "0x6080604052600160045566038d7ea4c6800060155560006019553480156200002657600080fd5b50604051620037c2380380620037c283398181016040528101906200004c919062000388565b60006200005e6200022360201b60201c565b905080600660006101000a81548173ffffffffffffffffffffffffffffffffffffffff021916908373ffffffffffffffffffffffffffffffffffffffff1602179055508073ffffffffffffffffffffffffffffffffffffffff16600073ffffffffffffffffffffffffffffffffffffffff167f8be0079c531659141344cd1fd0a4f28419497f9722a3daafe3b4186f6b6457e060405160405180910390a35084600760006101000a81548173ffffffffffffffffffffffffffffffffffffffff021916908373ffffffffffffffffffffffffffffffffffffffff160217905550600073ffffffffffffffffffffffffffffffffffffffff168473ffffffffffffffffffffffffffffffffffffffff1614156200018a57620001846200022b60201b60201c565b6200019c565b6200019b84620002d360201b60201c565b5b82601760006101000a81548173ffffffffffffffffffffffffffffffffffffffff021916908373ffffffffffffffffffffffffffffffffffffffff160217905550806018819055508160168190555060016019819055506001601260006101000a81548160ff021916908360058111156200021357fe5b02179055505050505050620004a0565b600033905090565b620002d173c89bd4e1632d3a43cb03aaad5262cbe4038bc57173ffffffffffffffffffffffffffffffffffffffff166338cc48316040518163ffffffff1660e01b815260040160206040518083038186803b1580156200028a57600080fd5b505afa1580156200029f573d6000803e3d6000fd5b505050506040513d601f19601f82011682018060405250810190620002c591906200035c565b620002d360201b60201c565b565b80600260006101000a81548173ffffffffffffffffffffffffffffffffffffffff021916908373ffffffffffffffffffffffffffffffffffffffff16021790555050565b600081519050620003288162000452565b92915050565b6000815190506200033f816200046c565b92915050565b600081519050620003568162000486565b92915050565b6000602082840312156200036f57600080fd5b60006200037f8482850162000317565b91505092915050565b600080600080600060a08688031215620003a157600080fd5b6000620003b18882890162000317565b9550506020620003c48882890162000317565b9450506040620003d78882890162000317565b9350506060620003ea8882890162000345565b9250506080620003fd888289016200032e565b9150509295509295909350565b6000620004178262000428565b9050919050565b6000819050919050565b600073ffffffffffffffffffffffffffffffffffffffff82169050919050565b6000819050919050565b6200045d816200040a565b81146200046957600080fd5b50565b62000477816200041e565b81146200048357600080fd5b50565b620004918162000448565b81146200049d57600080fd5b50565b61331280620004b06000396000f3fe6080604052600436106101ee5760003560e01c80639c484b5c1161010d578063c2b6b58c116100a0578063e11e5e8d1161006f578063e11e5e8d14610654578063f2fde38b1461067f578063f71d96cb146106a8578063fcaa7664146106e5578063fce592ac14610710576101ee565b8063c2b6b58c146105be578063c2e52206146105e9578063ce3cd99714610614578063d337616e1461063d576101ee565b8063af640d0f116100dc578063af640d0f14610535578063b62c06aa14610560578063b688a36314610589578063c040e6b814610593576101ee565b80639c484b5c14610489578063a1fd4b34146104b4578063a537e19d146104df578063a856b9c21461050a576101ee565b8063690e7c09116101855780638732ed57116101545780638732ed57146103f15780638b5b9ccc1461041c5780638da5cb5b146104475780638dc654a214610472576101ee565b8063690e7c0914610347578063715018a6146103845780637b3529621461039b5780638056d3f0146103c6576101ee565b806338019e41116101c157806338019e411461029d57806338e1d337146102c657806347535d7b146102f15780635aa6e6751461031c576101ee565b80630aebeb4e146101f35780630fe15c5e1461021c578063165d35e1146102475780631703751214610272575b600080fd5b3480156101ff57600080fd5b5061021a600480360381019061021591906127af565b61073f565b005b34801561022857600080fd5b5061023161096e565b60405161023e9190612c8c565b60405180910390f35b34801561025357600080fd5b5061025c610998565b6040516102699190612c8c565b60405180910390f35b34801561027e57600080fd5b506102876109a7565b6040516102949190612f76565b60405180910390f35b3480156102a957600080fd5b506102c460048036038101906102bf91906127af565b6109ad565b005b3480156102d257600080fd5b506102db610bc2565b6040516102e89190612f76565b60405180910390f35b3480156102fd57600080fd5b50610306610bc8565b6040516103139190612dd0565b60405180910390f35b34801561032857600080fd5b50610331610bf7565b60405161033e9190612e60565b60405180910390f35b34801561035357600080fd5b5061036e600480360381019061036991906127af565b610c1d565b60405161037b9190612deb565b60405180910390f35b34801561039057600080fd5b50610399610f07565b005b3480156103a757600080fd5b506103b061105f565b6040516103bd9190612dd0565b60405180910390f35b3480156103d257600080fd5b506103db61108f565b6040516103e89190612f76565b60405180910390f35b3480156103fd57600080fd5b50610406611095565b6040516104139190612deb565b60405180910390f35b34801561042857600080fd5b5061043161109f565b60405161043e9190612dae565b60405180910390f35b34801561045357600080fd5b5061045c61112d565b6040516104699190612c8c565b60405180910390f35b34801561047e57600080fd5b50610487611157565b005b34801561049557600080fd5b5061049e611351565b6040516104ab9190612f76565b60405180910390f35b3480156104c057600080fd5b506104c9611357565b6040516104d69190612f76565b60405180910390f35b3480156104eb57600080fd5b506104f461135d565b6040516105019190612f76565b60405180910390f35b34801561051657600080fd5b5061051f611365565b60405161052c9190612f76565b60405180910390f35b34801561054157600080fd5b5061054a61136b565b6040516105579190612f76565b60405180910390f35b34801561056c57600080fd5b506105876004803603810190610582919061275d565b611371565b005b610591611626565b005b34801561059f57600080fd5b506105a8611745565b6040516105b59190612e7b565b60405180910390f35b3480156105ca57600080fd5b506105d3611758565b6040516105e09190612dd0565b60405180910390f35b3480156105f557600080fd5b506105fe611788565b60405161060b9190612f76565b60405180910390f35b34801561062057600080fd5b5061063b60048036038101906106369190612786565b611795565b005b34801561064957600080fd5b50610652611852565b005b34801561066057600080fd5b506106696119ae565b6040516106769190612deb565b60405180910390f35b34801561068b57600080fd5b506106a660048036038101906106a191906126e2565b6119b4565b005b3480156106b457600080fd5b506106cf60048036038101906106ca91906127af565b611b7b565b6040516106dc9190612ca7565b60405180910390f35b3480156106f157600080fd5b506106fa611bb7565b6040516107079190612e7b565b60405180910390f35b34801561071c57600080fd5b50610725611bce565b604051610736959493929190612e06565b60405180910390f35b600280600581111561074d57fe5b601260009054906101000a900460ff16600581111561076857fe5b146107a8576040517f08c379a000000000000000000000000000000000000000000000000000000000815260040161079f90612ed6565b60405180910390fd5b600082116107eb576040517f08c379a00000000000000000000000000000000000000000000000000000000081526004016107e290612ef6565b60405180910390fd5b8160118190555042600f8190555060006013805490506011548161080b57fe5b0690506004601260006101000a81548160ff0219169083600581111561082d57fe5b021790555060004790506013828154811061084457fe5b9060005260206000200160009054906101000a900473ffffffffffffffffffffffffffffffffffffffff1673ffffffffffffffffffffffffffffffffffffffff166108fc829081150290604051600060405180830381858888f193505050501580156108b4573d6000803e3d6000fd5b50601382815481106108c257fe5b9060005260206000200160009054906101000a900473ffffffffffffffffffffffffffffffffffffffff1673ffffffffffffffffffffffffffffffffffffffff167f318c439a1352bef364f5056683fd70dba6a5052051c7d4d4bb8e2690b2422469601954601154858560405161093c9493929190612fe3565b60405180910390a26005601260006101000a81548160ff0219169083600581111561096357fe5b021790555050505050565b6000601760009054906101000a900473ffffffffffffffffffffffffffffffffffffffff16905090565b60006109a2611cd5565b905090565b600e5481565b6109b5611cff565b73ffffffffffffffffffffffffffffffffffffffff16600660009054906101000a900473ffffffffffffffffffffffffffffffffffffffff1673ffffffffffffffffffffffffffffffffffffffff1614610a44576040517f08c379a0000000000000000000000000000000000000000000000000000000008152600401610a3b90612f36565b60405180910390fd5b6001806005811115610a5257fe5b601260009054906101000a900460ff166005811115610a6d57fe5b14610aad576040517f08c379a0000000000000000000000000000000000000000000000000000000008152600401610aa490612ed6565b60405180910390fd5b610ab5612466565b610ac96018543063b62c06aa60e01b611d07565b9050610b176040518060400160405280600581526020017f756e74696c00000000000000000000000000000000000000000000000000000081525084420183611d389092919063ffffffff16565b610b46601760009054906101000a900473ffffffffffffffffffffffffffffffffffffffff1682601654611d6b565b506000601260006101000a81548160ff02191690836005811115610b6657fe5b02179055503373ffffffffffffffffffffffffffffffffffffffff167f3782a13b1c01b7c9065c8d8d3eec7612ab764556c52731b7d1586917631659c760195485604051610bb5929190612fba565b60405180910390a2505050565b600f5481565b6000806005811115610bd657fe5b601260009054906101000a900460ff166005811115610bf157fe5b14905090565b600760009054906101000a900473ffffffffffffffffffffffffffffffffffffffff1681565b6000610c27611cff565b73ffffffffffffffffffffffffffffffffffffffff16600660009054906101000a900473ffffffffffffffffffffffffffffffffffffffff1673ffffffffffffffffffffffffffffffffffffffff1614610cb6576040517f08c379a0000000000000000000000000000000000000000000000000000000008152600401610cad90612f36565b60405180910390fd5b6001806005811115610cc457fe5b601260009054906101000a900460ff166005811115610cdf57fe5b14610d1f576040517f08c379a0000000000000000000000000000000000000000000000000000000008152600401610d1690612ed6565b60405180910390fd5b610d27612466565b610d3b6018543063b62c06aa60e01b611d07565b905042600d8190555083600d5401600e81905550610d9b6040518060400160405280600581526020017f756e74696c000000000000000000000000000000000000000000000000000000815250600e5483611d389092919063ffffffff16565b8060086000820151816000015560208201518160010160006101000a81548173ffffffffffffffffffffffffffffffffffffffff021916908373ffffffffffffffffffffffffffffffffffffffff16021790555060408201518160010160146101000a81548163ffffffff021916908360e01c0217905550606082015181600201556080820151816003016000820151816000019080519060200190610e429291906124d3565b50602082015181600101555050905050610e81601760009054906101000a900473ffffffffffffffffffffffffffffffffffffffff1682601654611d6b565b9250826010819055506000601260006101000a81548160ff02191690836005811115610ea957fe5b02179055503373ffffffffffffffffffffffffffffffffffffffff167f3782a13b1c01b7c9065c8d8d3eec7612ab764556c52731b7d1586917631659c760195486604051610ef8929190612fba565b60405180910390a25050919050565b610f0f611cff565b73ffffffffffffffffffffffffffffffffffffffff16600660009054906101000a900473ffffffffffffffffffffffffffffffffffffffff1673ffffffffffffffffffffffffffffffffffffffff1614610f9e576040517f08c379a0000000000000000000000000000000000000000000000000000000008152600401610f9590612f36565b60405180910390fd5b600073ffffffffffffffffffffffffffffffffffffffff16600660009054906101000a900473ffffffffffffffffffffffffffffffffffffffff1673ffffffffffffffffffffffffffffffffffffffff167f8be0079c531659141344cd1fd0a4f28419497f9722a3daafe3b4186f6b6457e060405160405180910390a36000600660006101000a81548173ffffffffffffffffffffffffffffffffffffffff021916908373ffffffffffffffffffffffffffffffffffffffff160217905550565b60006002600581111561106e57fe5b601260009054906101000a900460ff16600581111561108957fe5b14905090565b600d5481565b6000601854905090565b6060601380548060200260200160405190810160405280929190818152602001828054801561112357602002820191906000526020600020905b8160009054906101000a900473ffffffffffffffffffffffffffffffffffffffff1673ffffffffffffffffffffffffffffffffffffffff16815260200190600101908083116110d9575b5050505050905090565b6000600660009054906101000a900473ffffffffffffffffffffffffffffffffffffffff16905090565b61115f611cff565b73ffffffffffffffffffffffffffffffffffffffff16600660009054906101000a900473ffffffffffffffffffffffffffffffffffffffff1673ffffffffffffffffffffffffffffffffffffffff16146111ee576040517f08c379a00000000000000000000000000000000000000000000000000000000081526004016111e590612f36565b60405180910390fd5b60006111f8611cd5565b90508073ffffffffffffffffffffffffffffffffffffffff1663a9059cbb338373ffffffffffffffffffffffffffffffffffffffff166370a08231306040518263ffffffff1660e01b81526004016112509190612c8c565b60206040518083038186803b15801561126857600080fd5b505afa15801561127c573d6000803e3d6000fd5b505050506040513d601f19601f820116820180604052508101906112a091906127d8565b6040518363ffffffff1660e01b81526004016112bd929190612cc2565b602060405180830381600087803b1580156112d757600080fd5b505af11580156112eb573d6000803e3d6000fd5b505050506040513d601f19601f8201168201806040525081019061130f9190612734565b61134e576040517f08c379a000000000000000000000000000000000000000000000000000000000815260040161134590612f16565b60405180910390fd5b50565b60155481565b60165481565b600047905090565b60115481565b60195481565b600080600581111561137f57fe5b601260009054906101000a900460ff16600581111561139a57fe5b146113da576040517f08c379a00000000000000000000000000000000000000000000000000000000081526004016113d190612ed6565b60405180910390fd5b816005600082815260200190815260200160002060009054906101000a900473ffffffffffffffffffffffffffffffffffffffff1673ffffffffffffffffffffffffffffffffffffffff163373ffffffffffffffffffffffffffffffffffffffff161461147c576040517f08c379a000000000000000000000000000000000000000000000000000000000815260040161147390612f56565b60405180910390fd5b6005600082815260200190815260200160002060006101000a81549073ffffffffffffffffffffffffffffffffffffffff0219169055807f7cc135e0cebb02c3480ae5d74d377283180a2601f8f644edf7987b009316c63a60405160405180910390a26002601260006101000a81548160ff021916908360058111156114fe57fe5b0217905550600760009054906101000a900473ffffffffffffffffffffffffffffffffffffffff1673ffffffffffffffffffffffffffffffffffffffff1663360131896040518163ffffffff1660e01b8152600401602060405180830381600087803b15801561156d57600080fd5b505af1158015611581573d6000803e3d6000fd5b505050506040513d601f19601f820116820180604052508101906115a5919061270b565b73ffffffffffffffffffffffffffffffffffffffff1663fd76deb1601954615eed6040518363ffffffff1660e01b81526004016115e3929190612f91565b600060405180830381600087803b1580156115fd57600080fd5b505af1158015611611573d6000803e3d6000fd5b50505050600160195401601981905550505050565b600080600581111561163457fe5b601260009054906101000a900460ff16600581111561164f57fe5b1461168f576040517f08c379a000000000000000000000000000000000000000000000000000000000815260040161168690612ed6565b60405180910390fd5b6013339080600181540180825580915050600190039060005260206000200160009091909190916101000a81548173ffffffffffffffffffffffffffffffffffffffff021916908373ffffffffffffffffffffffffffffffffffffffff1602179055503373ffffffffffffffffffffffffffffffffffffffff167f87969bc7faf902221a147b95ceba76e011c5efb0339a0a8ee7a2bb82d9cfbbd660195460405161173a9190612f76565b60405180910390a250565b601260009054906101000a900460ff1681565b60006001600581111561176757fe5b601260009054906101000a900460ff16600581111561178257fe5b14905090565b6000601380549050905090565b61179d611cff565b73ffffffffffffffffffffffffffffffffffffffff16600660009054906101000a900473ffffffffffffffffffffffffffffffffffffffff1673ffffffffffffffffffffffffffffffffffffffff161461182c576040517f08c379a000000000000000000000000000000000000000000000000000000000815260040161182390612f36565b60405180910390fd5b80601260006101000a81548160ff0219169083600581111561184a57fe5b021790555050565b61185a611cff565b73ffffffffffffffffffffffffffffffffffffffff16600660009054906101000a900473ffffffffffffffffffffffffffffffffffffffff1673ffffffffffffffffffffffffffffffffffffffff16146118e9576040517f08c379a00000000000000000000000000000000000000000000000000000000081526004016118e090612f36565b60405180910390fd5b6000601181905550600067ffffffffffffffff8111801561190957600080fd5b506040519080825280602002602001820160405280156119385781602001602082028036833780820191505090505b506013908051906020019061194e929190612553565b506001601260006101000a81548160ff0219169083600581111561196e57fe5b02179055507fbf67515a38ee520223d32c1266d52101c30d936ed1f3e436c8caeb0a43cb06bf6019546040516119a49190612f76565b60405180910390a1565b60105481565b6119bc611cff565b73ffffffffffffffffffffffffffffffffffffffff16600660009054906101000a900473ffffffffffffffffffffffffffffffffffffffff1673ffffffffffffffffffffffffffffffffffffffff1614611a4b576040517f08c379a0000000000000000000000000000000000000000000000000000000008152600401611a4290612f36565b60405180910390fd5b600073ffffffffffffffffffffffffffffffffffffffff168173ffffffffffffffffffffffffffffffffffffffff161415611abb576040517f08c379a0000000000000000000000000000000000000000000000000000000008152600401611ab290612e96565b60405180910390fd5b8073ffffffffffffffffffffffffffffffffffffffff16600660009054906101000a900473ffffffffffffffffffffffffffffffffffffffff1673ffffffffffffffffffffffffffffffffffffffff167f8be0079c531659141344cd1fd0a4f28419497f9722a3daafe3b4186f6b6457e060405160405180910390a380600660006101000a81548173ffffffffffffffffffffffffffffffffffffffff021916908373ffffffffffffffffffffffffffffffffffffffff16021790555050565b60138181548110611b8857fe5b906000526020600020016000915054906101000a900473ffffffffffffffffffffffffffffffffffffffff1681565b6000601260009054906101000a900460ff16905090565b60088060000154908060010160009054906101000a900473ffffffffffffffffffffffffffffffffffffffff16908060010160149054906101000a900460e01b9080600201549080600301604051806040016040529081600082018054600181600116156101000203166002900480601f016020809104026020016040519081016040528092919081815260200182805460018160011615610100020316600290048015611cbd5780601f10611c9257610100808354040283529160200191611cbd565b820191906000526020600020905b815481529060010190602001808311611ca057829003601f168201915b50505050508152602001600182015481525050905085565b6000600260009054906101000a900473ffffffffffffffffffffffffffffffffffffffff16905090565b600033905090565b611d0f612466565b611d17612466565b611d2e85858584611f35909392919063ffffffff16565b9150509392505050565b611d4f828460800151611fe590919063ffffffff16565b611d6681846080015161200a90919063ffffffff16565b505050565b600030600454604051602001611d82929190612c60565b604051602081830303815290604052805190602001209050600454836060018181525050836005600083815260200190815260200160002060006101000a81548173ffffffffffffffffffffffffffffffffffffffff021916908373ffffffffffffffffffffffffffffffffffffffff160217905550807fb5e6e01e79f91267dc17b4e6314d5d4d03593d2ceee0fbb452b750bd70ea5af960405160405180910390a2600260009054906101000a900473ffffffffffffffffffffffffffffffffffffffff1673ffffffffffffffffffffffffffffffffffffffff16634000aea08584611e6e8761201a565b6040518463ffffffff1660e01b8152600401611e8c93929190612d70565b602060405180830381600087803b158015611ea657600080fd5b505af1158015611eba573d6000803e3d6000fd5b505050506040513d601f19601f82011682018060405250810190611ede9190612734565b611f1d576040517f08c379a0000000000000000000000000000000000000000000000000000000008152600401611f1490612eb6565b60405180910390fd5b60016004600082825401925050819055509392505050565b611f3d612466565b611f4d85608001516101006120c1565b508385600001818152505082856020019073ffffffffffffffffffffffffffffffffffffffff16908173ffffffffffffffffffffffffffffffffffffffff16815250508185604001907bffffffffffffffffffffffffffffffffffffffffffffffffffffffff191690817bffffffffffffffffffffffffffffffffffffffffffffffffffffffff191681525050849050949350505050565b611ff28260038351612115565b612005818361225a90919063ffffffff16565b505050565b61201682600083612115565b5050565b6060634042994660e01b6000808460000151856020015186604001518760600151600189608001516000015160405160240161205d989796959493929190612ceb565b604051602081830303815290604052907bffffffffffffffffffffffffffffffffffffffffffffffffffffffff19166020820180517bffffffffffffffffffffffffffffffffffffffffffffffffffffffff83818316178352505050509050919050565b6120c96125dd565b6000602083816120d557fe5b06146120ee57602082816120e557fe5b06602003820191505b81836020018181525050604051808452600081528281016020016040525082905092915050565b601781116121425761213c8160058460ff16901b60ff16178461227c90919063ffffffff16565b50612255565b60ff811161218457612167601860058460ff16901b178461227c90919063ffffffff16565b5061217e8160018561229c9092919063ffffffff16565b50612254565b61ffff81116121c7576121aa601960058460ff16901b178461227c90919063ffffffff16565b506121c18160028561229c9092919063ffffffff16565b50612253565b63ffffffff811161220c576121ef601a60058460ff16901b178461227c90919063ffffffff16565b506122068160048561229c9092919063ffffffff16565b50612252565b67ffffffffffffffff811161225157612238601b60058460ff16901b178461227c90919063ffffffff16565b5061224f8160088561229c9092919063ffffffff16565b505b5b5b5b5b505050565b6122626125dd565b612274838460000151518485516122be565b905092915050565b6122846125dd565b6122948384600001515184612377565b905092915050565b6122a46125dd565b6122b58485600001515185856123c5565b90509392505050565b6122c66125dd565b82518211156122d457600080fd5b846020015182850111156122ff576122fe8560026122f88860200151888701612426565b02612442565b5b60008086518051876020830101935080888701111561231e5787860182525b60208701925050505b6020841061234a5780518252602082019150602081019050602084039350612327565b60006001856020036101000a03905080198251168184511681811785525050879350505050949350505050565b61237f6125dd565b8360200151831061239c5761239b846002866020015102612442565b5b83518051602085830101848153818614156123b8576001820183525b5050508390509392505050565b6123cd6125dd565b846020015184830111156123eb576123ea85600286850102612442565b5b60006001836101000a03905085518386820101858319825116178152815185880111156124185784870182525b505085915050949350505050565b6000818311156124385782905061243c565b8190505b92915050565b60608260000151905061245583836120c1565b50612460838261225a565b50505050565b6040518060a0016040528060008019168152602001600073ffffffffffffffffffffffffffffffffffffffff16815260200160007bffffffffffffffffffffffffffffffffffffffffffffffffffffffff19168152602001600081526020016124cd6125dd565b81525090565b828054600181600116156101000203166002900490600052602060002090601f016020900481019282601f1061251457805160ff1916838001178555612542565b82800160010185558215612542579182015b82811115612541578251825591602001919060010190612526565b5b50905061254f91906125f7565b5090565b8280548282559060005260206000209081019282156125cc579160200282015b828111156125cb5782518260006101000a81548173ffffffffffffffffffffffffffffffffffffffff021916908373ffffffffffffffffffffffffffffffffffffffff16021790555091602001919060010190612573565b5b5090506125d99190612614565b5090565b604051806040016040528060608152602001600081525090565b5b808211156126105760008160009055506001016125f8565b5090565b5b8082111561264b57600081816101000a81549073ffffffffffffffffffffffffffffffffffffffff021916905550600101612615565b5090565b60008135905061265e81613270565b92915050565b60008151905061267381613270565b92915050565b60008151905061268881613287565b92915050565b60008135905061269d8161329e565b92915050565b6000813590506126b2816132b5565b92915050565b6000813590506126c7816132c5565b92915050565b6000815190506126dc816132c5565b92915050565b6000602082840312156126f457600080fd5b60006127028482850161264f565b91505092915050565b60006020828403121561271d57600080fd5b600061272b84828501612664565b91505092915050565b60006020828403121561274657600080fd5b600061275484828501612679565b91505092915050565b60006020828403121561276f57600080fd5b600061277d8482850161268e565b91505092915050565b60006020828403121561279857600080fd5b60006127a6848285016126a3565b91505092915050565b6000602082840312156127c157600080fd5b60006127cf848285016126b8565b91505092915050565b6000602082840312156127ea57600080fd5b60006127f8848285016126cd565b91505092915050565b600061280d8383612828565b60208301905092915050565b61282281613142565b82525050565b612831816130b1565b82525050565b612840816130b1565b82525050565b61284f8161309f565b82525050565b600061286082613038565b61286a818561305b565b935061287583613028565b8060005b838110156128a657815161288d8882612801565b97506128988361304e565b925050600181019050612879565b5085935050505092915050565b6128bc816130c3565b82525050565b6128cb816130cf565b82525050565b6128da816130d9565b82525050565b60006128eb82613043565b6128f5818561306c565b93506129058185602086016131e4565b61290e81613245565b840191505092915050565b600061292482613043565b61292e818561307d565b935061293e8185602086016131e4565b61294781613245565b840191505092915050565b61296361295e82613154565b613217565b82525050565b61297281613178565b82525050565b6129818161319c565b82525050565b612990816131ae565b82525050565b60006129a360268361308e565b91507f4f776e61626c653a206e6577206f776e657220697320746865207a65726f206160008301527f64647265737300000000000000000000000000000000000000000000000000006020830152604082019050919050565b6000612a0960238361308e565b91507f756e61626c6520746f207472616e73666572416e6443616c6c20746f206f726160008301527f636c6500000000000000000000000000000000000000000000000000000000006020830152604082019050919050565b6000612a6f60278361308e565b91507f46756e6374696f6e2063616e6e6f742062652063616c6c65642061742074686960008301527f732074696d652e000000000000000000000000000000000000000000000000006020830152604082019050919050565b6000612ad5601b8361308e565b91507f72616e646f6d206e756d626572206e6f742079657420726561647900000000006000830152602082019050919050565b6000612b1560128361308e565b91507f556e61626c6520746f207472616e7366657200000000000000000000000000006000830152602082019050919050565b6000612b5560208361308e565b91507f4f776e61626c653a2063616c6c6572206973206e6f7420746865206f776e65726000830152602082019050919050565b6000612b9560288361308e565b91507f536f75726365206d75737420626520746865206f7261636c65206f662074686560008301527f20726571756573740000000000000000000000000000000000000000000000006020830152604082019050919050565b60006040830160008301518482036000860152612c0b82826128e0565b9150506020830151612c206020860182612c2b565b508091505092915050565b612c3481613138565b82525050565b612c4381613138565b82525050565b612c5a612c5582613138565b61323b565b82525050565b6000612c6c8285612952565b601482019150612c7c8284612c49565b6020820191508190509392505050565b6000602082019050612ca16000830184612846565b92915050565b6000602082019050612cbc6000830184612837565b92915050565b6000604082019050612cd76000830185612819565b612ce46020830184612c3a565b9392505050565b600061010082019050612d01600083018b612846565b612d0e602083018a612c3a565b612d1b60408301896128c2565b612d286060830188612846565b612d3560808301876128d1565b612d4260a0830186612c3a565b612d4f60c0830185612c3a565b81810360e0830152612d618184612919565b90509998505050505050505050565b6000606082019050612d856000830186612846565b612d926020830185612c3a565b8181036040830152612da48184612919565b9050949350505050565b60006020820190508181036000830152612dc88184612855565b905092915050565b6000602082019050612de560008301846128b3565b92915050565b6000602082019050612e0060008301846128c2565b92915050565b600060a082019050612e1b60008301886128c2565b612e286020830187612846565b612e3560408301866128d1565b612e426060830185612c3a565b8181036080830152612e548184612bee565b90509695505050505050565b6000602082019050612e756000830184612969565b92915050565b6000602082019050612e906000830184612978565b92915050565b60006020820190508181036000830152612eaf81612996565b9050919050565b60006020820190508181036000830152612ecf816129fc565b9050919050565b60006020820190508181036000830152612eef81612a62565b9050919050565b60006020820190508181036000830152612f0f81612ac8565b9050919050565b60006020820190508181036000830152612f2f81612b08565b9050919050565b60006020820190508181036000830152612f4f81612b48565b9050919050565b60006020820190508181036000830152612f6f81612b88565b9050919050565b6000602082019050612f8b6000830184612c3a565b92915050565b6000604082019050612fa66000830185612c3a565b612fb36020830184612987565b9392505050565b6000604082019050612fcf6000830185612c3a565b612fdc6020830184612c3a565b9392505050565b6000608082019050612ff86000830187612c3a565b6130056020830186612c3a565b6130126040830185612c3a565b61301f6060830184612c3a565b95945050505050565b6000819050602082019050919050565b600081519050919050565b600081519050919050565b6000602082019050919050565b600082825260208201905092915050565b600082825260208201905092915050565b600082825260208201905092915050565b600082825260208201905092915050565b60006130aa82613118565b9050919050565b60006130bc82613118565b9050919050565b60008115159050919050565b6000819050919050565b60007fffffffff0000000000000000000000000000000000000000000000000000000082169050919050565b600081905061311382613263565b919050565b600073ffffffffffffffffffffffffffffffffffffffff82169050919050565b6000819050919050565b600061314d826131c0565b9050919050565b600061315f82613166565b9050919050565b600061317182613118565b9050919050565b60006131838261318a565b9050919050565b600061319582613118565b9050919050565b60006131a782613105565b9050919050565b60006131b982613138565b9050919050565b60006131cb826131d2565b9050919050565b60006131dd82613118565b9050919050565b60005b838110156132025780820151818401526020810190506131e7565b83811115613211576000848401525b50505050565b600061322282613229565b9050919050565b600061323482613256565b9050919050565b6000819050919050565b6000601f19601f8301169050919050565b60008160601b9050919050565b6006811061326d57fe5b50565b6132798161309f565b811461328457600080fd5b50565b613290816130c3565b811461329b57600080fd5b50565b6132a7816130cf565b81146132b257600080fd5b50565b600681106132c257600080fd5b50565b6132ce81613138565b81146132d957600080fd5b5056fea264697066735822122080e09c9a81cde7d16a61819bd58db153ed3d628b5e9321f56ad78e02711a60ad64736f6c634300060c0033",
  "immutableReferences": {},
  "source": "// SPDX-License-Identifier: MIT\n\npragma solidity ^0.6.6;\n\npragma experimental ABIEncoderV2;\n\nimport \"@chainlink/contracts/src/v0.6/ChainlinkClient.sol\";\nimport \"@openzeppelin/contracts/access/Ownable.sol\";\nimport \"@openzeppelin/contracts/utils/EnumerableSet.sol\";\n\nimport {GovernanceInterface} from \"./interfaces/GovernanceInterface.sol\";\nimport {RandomnessInterface} from \"./interfaces/RandomnessInterface.sol\";\n\n/**\n * @title MyContract is an example contract which requests data from\n * the Chainlink network\n * @dev This contract is designed to work on multiple networks, including\n * local test networks\n */\n\ncontract Lottery is ChainlinkClient, Ownable {\n\n    GovernanceInterface public governance;\n\n    // log main events of Lottery\n    Chainlink.Request public alarmRequest;\n    uint256 public alarmStartTime;\n    uint256 public alarmSetTime;\n    uint256 public alarmReceivedTime;\n    bytes32 public alarmRequestId;\n\n    uint256 public lastRandom;\n\n    using EnumerableSet for EnumerableSet.AddressSet;\n\n    struct GameHistory {\n        uint256 played;\n    }\n\n    struct Player {\n        uint256 id;\n        GameHistory gameHistory;\n    }\n\n    enum Stages {\n        OPEN,\n        CLOSED,\n        FINISHED,\n        RANDOM_REQUEST_SENT,\n        RANDOM_PROCESSED,\n        WINNER_PAID\n    }\n\n    Stages public stage;\n\n    address payable[] public players;\n    mapping(address => uint256) playerIdsByAddress;  // do we need this ? *TODO*\n\n    uint256 public MINIMUM = 1000000000000000;  // .01 ETH - we will make joining free - *TODO* remove\n\n    // parameter for Chainlink Alarm Oracle\n    uint256 public  ORACLE_PAYMENT;          // 100000000000000000;  // 0.1 LINK\n    address private CHAINLINK_ALARM_ORACLE;\n    bytes32 private CHAINLINK_ALARM_JOB_ID;  // String (!) for kovan \"a7ab70d561d34eb49e9b1612fd2e044b\";\n\n    /**\n     * The current lottery id.\n     */\n    uint256 public id = 0;\n\n\n    event Open(uint256 _id, address indexed _from, uint256 _durationInSeconds);\n    event Close(uint256 _id);\n    event Winner(\n        uint256 _id,\n        uint256 _randomness,\n        uint256 _index,\n        address indexed _from,\n        uint256 _amount\n    );\n    event PlayerJoined(uint256 _id, address indexed _from);\n\n\n    modifier atStage(Stages _stage) {\n        // string(abi.encodePacked(_.name, \" can only be called at stage: \", _stage, \"\\n Current stage: \", stage))\n        require(stage == _stage, \"Function cannot be called at this time.\");\n        _;\n    }\n\n\n    /**\n     * @notice Deploy the contract with a specified address for the LINK\n     * and Oracle contract addresses\n     * @dev Sets the storage for the specified addresses\n     * @param _link The address of the LINK token contract\n     */\n    constructor(\n        address _governance,\n        address _link,\n        address _alarmOracle,\n        uint256 _alarmFee,\n        bytes32 _alarmJobIdHex  // Job Id String converted to Hex !!!\n    ) public {\n        governance = GovernanceInterface(_governance);\n\n        if (_link == address(0)) {\n            setPublicChainlinkToken();\n        } else {\n            setChainlinkToken(_link);\n        }\n\n        CHAINLINK_ALARM_ORACLE = _alarmOracle;\n        CHAINLINK_ALARM_JOB_ID = _alarmJobIdHex;  // String (!) for Kovan \"a7ab70d561d34eb49e9b1612fd2e044b\"\n        ORACLE_PAYMENT         = _alarmFee;\n\n        id = 1;\n        stage = Stages.CLOSED;\n    }\n\n\n    /**\n     * Opens the lottery allowing players to join.\n     *\n     * Sends a request to the Chainlink alarm oracle that will automatically\n     * close the lottery after durationInSeconds passed.\n     *\n     * @notice only the owner/deployer of the contract can call this function\n     * @param durationInSeconds the length in seconds the lottery will be open.\n     */\n    function open_OLD(uint256 durationInSeconds) public onlyOwner atStage(Stages.CLOSED) {\n        Chainlink.Request memory req = buildChainlinkRequest(\n            CHAINLINK_ALARM_JOB_ID,\n            address(this),\n            this.fulfillAlarm.selector\n        );\n\n        req.addUint(\"until\", block.timestamp + durationInSeconds);\n        sendChainlinkRequestTo(CHAINLINK_ALARM_ORACLE, req, ORACLE_PAYMENT);\n        stage = Stages.OPEN;\n        emit Open(id, msg.sender, durationInSeconds);\n    }\n\n\n    function open(uint256 durationInSeconds) public onlyOwner atStage(Stages.CLOSED) returns (bytes32 requestId) {\n\n        Chainlink.Request memory request = buildChainlinkRequest(CHAINLINK_ALARM_JOB_ID, address(this), this.fulfillAlarm.selector);\n\n        alarmStartTime = block.timestamp;\n        alarmSetTime   = alarmStartTime + durationInSeconds;\n        request.addUint(\"until\", alarmSetTime);\n\n        alarmRequest = request; // store for *TEST*\n\n        requestId = sendChainlinkRequestTo(CHAINLINK_ALARM_ORACLE, request, ORACLE_PAYMENT);\n\n        alarmRequestId = requestId; // store for *TEST*\n\n        stage = Stages.OPEN;\n        emit Open(id, msg.sender, durationInSeconds);\n\n        return requestId;\n    }\n\n\n    function join() public payable atStage(Stages.OPEN) {\n        // assert(msg.value == MINIMUM);    *TEST* let users join for free (if they want)\n        players.push(msg.sender);\n        // TODO: check that player is not already in lottery\n        emit PlayerJoined(id, msg.sender);\n    }\n\n\n    function fulfillAlarm(bytes32 requestId) public atStage(Stages.OPEN) recordChainlinkFulfillment(requestId)\n    {\n        stage = Stages.FINISHED;    // time is over for users to join\n\n        // TODO: add a require here so that only the oracle contract can\n        // call the fulfill alarm method\n        RandomnessInterface(governance.randomness()).requestRandomNumber(id, 0x5eed);\n\n        id = id + 1;\n    }\n\n\n    /**\n     * @dev callback fulfillRandomness\n     * @dev store and later process random number\n     */\n    function close(uint256 randomNumberVRF) external atStage(Stages.FINISHED) {\n        require(randomNumberVRF > 0, \"random number not yet ready\");\n\n        lastRandom = randomNumberVRF;\n        alarmReceivedTime = block.timestamp;\n\n        uint256 index = lastRandom % players.length;\n\n        stage = Stages.RANDOM_PROCESSED;\n\n        // transfer contract balance to winner\n        uint256 amount = address(this).balance;\n        players[index].transfer(amount);\n        emit Winner(id, lastRandom, index, players[index], amount);\n        stage = Stages.WINNER_PAID;\n    }\n\n\n    function resetLottery() external onlyOwner {\n        // reset players\n        // TODO: reset lobbies/groups rather than players\n        lastRandom = 0;\n        players = new address payable[](0);\n        stage = Stages.CLOSED;\n        emit Close(id);\n    }\n\n    /**\n     * @notice Returns the address of the LINK token\n     * @dev This is the public implementation for chainlinkTokenAddress, which is\n     * an internal method of the ChainlinkClient contract\n     */\n    function getChainlinkToken() public view returns (address) {\n        return chainlinkTokenAddress();\n    }\n/*\n    function getPlayer(address _player) public view returns (address payable) {\n        uint256 _playerId = playerIdsByAddress[_player];\n        return players[_playerId];\n    }\n*/\n    function getAlarmAddress() public view returns (address) {\n        return CHAINLINK_ALARM_ORACLE;\n    }\n\n    function getAlarmJobId() public view returns (bytes32) {\n        return CHAINLINK_ALARM_JOB_ID;\n    }\n\n    function getPlayers() public view returns (address payable[] memory) {\n        return players;\n    }\n\n    function getPlayerCount() public view returns (uint256) {\n        return players.length;\n    }\n\n    function getLotteryAmount() public view returns (uint256) {\n        return address(this).balance;\n    }\n\n    function isOpen() public view returns (bool) {\n        return stage == Stages.OPEN;\n    }\n\n    function isClosed() public view returns (bool) {\n        return stage == Stages.CLOSED;\n    }\n\n    function isFinished() public view returns (bool) {\n        return stage == Stages.FINISHED;\n    }\n\n    function getStage() public view returns (Stages) {\n        return stage;\n    }\n\n    // emergency function if process got stuck\n    function setStage(Stages _stage) external onlyOwner {\n        stage = _stage;\n    }\n\n    /**\n     * Withdraw LINK from this contract\n     *\n     * NOTE: DO NOT USE THIS IN PRODUCTION AS IT CAN BE CALLED BY ANY ADDRESS.\n     * THIS IS PURELY FOR EXAMPLE PURPOSES ONLY.\n     */\n    function withdrawLink() external onlyOwner {\n        LinkTokenInterface linkToken = LinkTokenInterface(chainlinkTokenAddress());\n        require(linkToken.transfer(msg.sender, linkToken.balanceOf(address(this))), \"Unable to transfer\");\n    }\n}\n",
  "sourcePath": "/home/sum/DEV/ETH/ChainlinkProjects/lotto-chainlink/ethereum/contracts/Lottery.sol",
  "compiler": {
    "name": "solc",
    "version": "0.6.12+commit.27d51765.Emscripten.clang"
  },
  "schemaVersion": "3.3.3",
  "updatedAt": "2021-01-29T15:57:56.078Z",
  "devdoc": {
    "details": "This contract is designed to work on multiple networks, including local test networks",
    "kind": "dev",
    "methods": {
      "close(uint256)": {
        "details": "callback fulfillRandomnessstore and later process random number"
      },
      "constructor": {
        "details": "Sets the storage for the specified addresses",
        "params": {
          "_link": "The address of the LINK token contract"
        }
      },
      "getChainlinkToken()": {
        "details": "This is the public implementation for chainlinkTokenAddress, which is an internal method of the ChainlinkClient contract"
      },
      "open_OLD(uint256)": {
        "params": {
          "durationInSeconds": "the length in seconds the lottery will be open."
        }
      },
      "owner()": {
        "details": "Returns the address of the current owner."
      },
      "renounceOwnership()": {
        "details": "Leaves the contract without owner. It will not be possible to call `onlyOwner` functions anymore. Can only be called by the current owner. NOTE: Renouncing ownership will leave the contract without an owner, thereby removing any functionality that is only available to the owner."
      },
      "transferOwnership(address)": {
        "details": "Transfers ownership of the contract to a new account (`newOwner`). Can only be called by the current owner."
      }
    },
    "title": "MyContract is an example contract which requests data from the Chainlink network",
    "version": 1
  },
  "userdoc": {
    "kind": "user",
    "methods": {
      "constructor": "Deploy the contract with a specified address for the LINK and Oracle contract addresses",
      "getChainlinkToken()": {
        "notice": "Returns the address of the LINK token"
      },
      "id()": {
        "notice": "The current lottery id."
      },
      "open_OLD(uint256)": {
        "notice": "Opens the lottery allowing players to join. Sends a request to the Chainlink alarm oracle that will automatically close the lottery after durationInSeconds passed.only the owner/deployer of the contract can call this function"
      },
      "withdrawLink()": {
        "notice": "Withdraw LINK from this contract NOTE: DO NOT USE THIS IN PRODUCTION AS IT CAN BE CALLED BY ANY ADDRESS. THIS IS PURELY FOR EXAMPLE PURPOSES ONLY."
      }
    },
    "version": 1
  }
}